:020000040800F2
:10000000B8060020650200086D0200086F020008B3
:100010007102000873020008750200080000000069
:10002000000000000000000000000000770200084F
:1000300079020008000000007B0200087D02000831
:100040007F0200087F0200087F0200087F0200088C
:100050007F0200087F0200087F0200087F0200087C
:100060007F0200087F0200087F0200087F0200086C
:100070007F0200087F0200087F0200087F0200085C
:100080007F0200087F0200087F0200087F0200084C
:100090007F0200087F0200087F0200087F0200083C
:1000A0007F0200087F0200087F0200087F0200082C
:1000B0007F0200087F0200087F0200087F0200081C
:1000C0007F0200087F0200087F0200087F0200080C
:1000D0007F020008410800087F0200087F02000834
:1000E0007F0200087F0200087F0200087F020008EC
:1000F0007F0200087F0200087F0200087F020008DC
:100100007F0200087F0200087F0200087F020008CB
:100110007F0200087F0200087F0200087F020008BB
:100120007F0200087F0200087F0200087F020008AB
:100130007F02000800000000000000007F020008AD
:100140007F0200087F0200087F0200087F0200088B
:100150007F0200087F0200087F0200087F0200087B
:100160007F0200087F0200087F0200087F0200086B
:100170007F0200087F0200087F02000800000000E4
:10018000000000007F0200080000000000000000E6
:100190007F02000800000000000000007F0200084D
:1001A0000000000000000000000000007F020008C6
:1001B0007F0200087F0200087F0200087F0200081B
:1001C0007F02000800F002F800F03CF80AA090E876
:1001D000000C82448344AAF10107DA4501D100F002
:1001E00031F8AFF2090EBAE80F0013F0010F18BF93
:1001F000FB1A43F0010318472013000040130000CE
:10020000103A24BF78C878C1FAD8520724BF30C842
:1002100030C144BF04680C60704700000023002414
:1002200000250026103A28BF78C1FBD8520728BF06
:1002300030C148BF0B6070471FB501F020F91FBDEA
:1002400010B510BD00F058F81146FFF7F5FF01F0AA
:10025000E3F800F076F803B4FFF7F2FF03BC00F018
:100260007DF800000948804709480047FEE7FEE79F
:10027000FEE7FEE7FEE7FEE7FEE7FEE7FEE7FEE756
:1002800004480549054A064B70470000F507000879
:10029000C5010008B8000020B8060020B802002000
:1002A000B80200204FF0000200B51346944696466F
:1002B000203922BFA0E80C50A0E80C50B1F1200179
:1002C000BFF4F7AF090728BFA0E80C5048BF0CC027
:1002D0005DF804EB890028BF40F8042B08BF704785
:1002E00048BF20F8022B11F0804F18BF00F8012BF7
:1002F0007047704770477047754600F02BF8AE4660
:1003000005006946534620F00700854618B020B521
:10031000FFF7B6FFBDE820404FF000064FF00007A2
:100320004FF000084FF0000BAC46ACE8C009ACE859
:10033000C009ACE8C009ACE8C00921F007018D464E
:10034000704710B50446AFF300802046BDE810406A
:10035000FFF781BF004870471800002001491820AE
:10036000ABBEFEE7260002007047000081B0A0F19E
:100370008041A1F5043202F580514FEAB123072BE9
:1003800000F2BC8043F6300CC4F2020CDFE803F04C
:10039000041F39526888A2B800210091DCF80010CF
:1003A00041F00101CCF80010DCF8001001F001016F
:1003B0000091009902F540614FEAB123062B00F24B
:1003C0009D80DFE803F0041E374D6D879D000021FE
:1003D0000091DCF8001041F00201CCF80010DCF8CC
:1003E000001001F002010091009902F500614FEA4E
:1003F000B123052B00F28280DFE803F0031C3252A8
:100400006C8200210091DCF8001041F00401CCF86E
:100410000010DCF8001001F004010091009902F5D1
:1004200080614FEAB123042B68D8DFE803F0031999
:100430003953690000210091DCF800104FEAB22224
:1004400041F00801CCF80010DCF80010032A01F09C
:1004500008010091009951D8DFE802F002223C52D5
:1004600000210091DCF8001041F01001CCF80010E0
:10047000DCF8001001F010010091009941F60041F4
:10048000C4F2020188423BD041F60001C4F20201ED
:1004900088421FD041F20041C4F2020188422DD1AE
:1004A00000210091DCF8001041F02001CCF8001090
:1004B000DCF8001001F020010091009941F60041A4
:1004C000C4F2020188421BD041F60001C4F20201CD
:1004D000884213D100210091DCF8001041F0400166
:1004E000CCF80010DCF8001001F0400100910099F8
:1004F00041F60041C4F20201884201D001B07047C8
:1005000000200090DCF8000040F08000CCF80000F3
:10051000DCF8000000F080000090009801B0704707
:100520002DE9F04F84B000F13E4202F1FF724FEA34
:10053000B22241F6000743F600430192C4F20207DB
:100540000722C4F20103B84208BF06220092002429
:100550000122A3F57E73002500270393029125E075
:100560000268032101FA04F36FF003019A4301EAE0
:1005700057010260014405F01C0E0E6A0F2202FAB8
:100580000EF226EA02020A62C16801229943C160A2
:10059000416821EA0C0141608168994381600299B8
:1005A00001370435102F04F1020439D002FA07FC98
:1005B0001CEA0109F4D003994FEA970851F828B0D2
:1005C00005F00C0E0F2101FA0EFA0199009A062986
:1005D00038BF0A460BEA0A0302FA0EF29342BFD171
:1005E00043F60041C4F201010A6822EA09020A60E6
:1005F0004A6822EA09024A608A6822EA09028A6095
:1006000043F60C41C4F201010A6822EA09020A60B9
:10061000039951F8282022EA0A0241F828209FE78E
:1006200004B0BDE8F08F00002DE9F04F83B000F179
:100630003E4202F1FF724FEAB22241F600070192F8
:10064000C4F202070722012600254FF000084FF0F0
:100650000009B84208BF0622009209E009F1010929
:1006600008F10408B9F1100F05F1020500F0A380AC
:100670000C6806FA09FB14EA0B0CEFD0D1F804A0C1
:10068000BAF1120F17D806FA0AF414F0061F12D0A6
:1006900084680322CF6802FA05FE24EA0E04AF4004
:1006A000274387604768CAF3001427EA0B0704FA58
:1006B00009F4274347600322C76802FA05F48A68F1
:1006C000A743AA403A434AF010076FEA040E122FDC
:1006D000C26010D16FF0030202EA59020244176AA5
:1006E00008F01C060F230C69B34027EA0303B4404B
:1006F00001262343136202684B6802EA0E0203F0EC
:100700000307AF403A43DB000260A7D5002243F65F
:1007100044030292C4F202031A6843F6004442F40E
:1007200080421A601A68C4F2010402F48042029204
:10073000029A29F003024FF6084A2244CFF6FF7AC4
:1007400052F80A3008F00C070F26BE4023EA060EC6
:10075000019B009E062B38BF1E4606FA07F747EAA4
:100760000E0342F80A3022684B6842EA0C07DE03A7
:1007700058BF22EA0C07276062689E0342EA0C0712
:1007800058BF22EA0C076760A268DE0242EA0C0743
:1007900058BF22EA0C07A76043F60C47C4F20107D2
:1007A0003A689B024FF0010642EA0C0358BF22EA66
:1007B0000C033B6052E703B0BDE8F08F80B500F05A
:1007C0000FFE80BD40F20000C2F2000000687047DA
:1007D00080B5FFF7F7FF43F60801C4F2020109688C
:1007E00041F29842C1F34231C0F60002515CC84068
:1007F00080BD00004EF68850CEF20000016841F442
:10080000700101604FF0006140F8801C70470000EB
:1008100080B500F03DF880BD40F2396070470000BF
:1008200080B500F089FA80BD80B500F087FA80BD00
:1008300080B500F089FA80BD80B500F0BBFA80BDBC
:1008400080B541F2D840C0F6000000F0B9FA80BD92
:1008500080B500F0B7FB002080BD000080B500F03F
:100860005DFC80BD80B500F0BDFC80BD80B500F0B2
:1008700003FD80BD80B500F03FFD80BD80B500F078
:1008800067FD80BD80B500F08DFD002080BD0000BB
:100890002DE9F04F89B040F27806C2F20006F27AF4
:1008A0000C46910704D44FF0FF3009B0BDE8F08F3B
:1008B00001466FF0140050FA81F3052B2CD84FF04D
:1008C000FF30DFE813F00600350264007300840097
:1008D0009100002C41F20C04C4F2010400F0978056
:1008E000F06806280FD04FF40070049002200590A5
:1008F0000020CDE90600072008904EF6F470204451
:1009000004A9FFF791FEF07A40F00800F072206829
:1009100040F008002060ABE040F28C02C2F200021E
:10092000707992F8213018433BD141F20C08C4F29F
:100930000108D8F80000000703D558F80C0C400651
:100940002FD54FF0FF3050FA81F3132B00F2AA801D
:100950006FF006004FF0000A0127DFE813F0940063
:10096000E901E90114008D009100A300A300A30098
:10097000A300A300A300A300A300A300A800AA0053
:10098000CE00DD00FE004FF0080A04277BE0002CBB
:100990004FD040F28C00C2F2000090F821100029E4
:1009A0005BD06FF0010009B0BDE8F08F41F20C00A0
:1009B000C4F20100016821F0C001016040F28C0125
:1009C000C2F200010020088409B0BDE8F08F41F2B6
:1009D0000C00C4F20100016821F020010160002038
:1009E000707109B0BDE8F08F41F20C00C4F2010053
:1009F000016821F0E001016040F28C010020C2F2A8
:100A00000001707181F8210009B0BDE8F08F206805
:100A100002F0F70120F008002060F068F17206286B
:100A200026D04EF6F47020444FF40071FFF778FDA5
:100A30001EE040F28C01C2F2000191F82000002873
:100A40004FF0000000F0748141F20C02C4F2010288
:100A5000136823F080031360B5E740F201110184AD
:100A600041F20C00C4F20100016841F08101016013
:100A7000002009B0BDE8F08F4FF0020A052702E020
:100A80004FF0200A062711F4E06074D0B0F5807FA3
:100A900078D0B0F5E06F78D111F4405F75D00023C5
:100AA00000257AE06FF0030009B0BDE8F08F5483B1
:100AB000DEE7F06805287FF4F6AE002CD8D0D8F831
:100AC000080040F00400C8F80800FFF781FE4CF66B
:100AD0000021C3F69A31B1FBF0F101220020013070
:100AE000FF2805D802FB01F3A34202F10102F6D967
:100AF000B0F5807F3FF4D7AEE4E0FF2C4FF0FF303D
:100B000000F21681F168062940F01281D8F80C0035
:100B100020F47F402043DAE0F06806287FF4C3AE7B
:100B2000FFF756FE4CF60021C3F69A31B1FBF0F008
:100B3000C8214143662004FB00F2622004FB00F35D
:100B4000012003E00130402800F0B88001FB00F7ED
:100B50009742F7D29F42F5D9B1E0F06806287FF4BA
:100B6000A2AE002C3FF484AFD8F8080040F010008B
:100B7000C8F808007CE711F4405018BF01200303B7
:100B800045010AE011F4405F04D06FF0080009B09D
:100B9000BDE8F08F20254FF4805311F440500AD067
:100BA000B0F5005F05D0B0F5805F0DD143F48063F0
:100BB00001E043F4C063C1F38130DFE800F00F02CD
:100BC0000A0D05F5005509E06FF0090009B0BDE810
:100BD000F08F05F5405501E005F5805511F4403FD3
:100BE00004D06FF00B0009B0BDE8F08FCDE90153E0
:100BF000FFF7EEFD4FF0190B00FB0BF0A500B0FB6B
:100C0000F5F048F21F51C5F2EB11A0FB01014808B5
:100C10000390FFF7DDFD00FB0BF0B0FBF5F9FFF7EC
:100C2000D7FD00FB0BF0B0FBF5F048F21F52C5F208
:100C3000EB12A0FB02014809642500FB159032214C
:100C400001EB0010A0FB020103984FEA511B0009C1
:100C500060F31F1BFFF7BCFD00011FFA8BF1B0FB17
:100C6000F1F0000900FB05F16620604381426FF05E
:100C700007005DD262226243914259D9D8F8000040
:100C8000062F20F40050C8F800004FF0000048F88C
:100C900004BCF76030611DD14FF400710491022152
:100CA000CDE905100790072008904EF6F4704044F7
:100CB00004A9FFF7B9FCDDE9015428E040204028F1
:100CC0003FF4F1ADD8F80C1021F0FF010843C8F84B
:100CD0000C00CDE6F07ADDE90154000707D44EF6AA
:100CE000F47040444FF40071FFF71AFC0FE04FF42A
:100CF00000700490022005900020CDE90600072036
:100D000008904EF6F470404404A9FFF78DFCC8F833
:100D10000040C8F80450C8F808A0D8F8000040F413
:100D20000050C8F80000F07A40F00400F072002093
:100D300009B0BDE8F08F00000020704740F28C0041
:100D4000C2F200000069704710B540F28C00C2F298
:100D5000000090F821004FF0010C30B941F2000181
:100D6000C4F2010109682CEA911C40F27801C2F238
:100D700000014A798B79C87902F0010291F808E004
:100D800003F001034CEA420200F001004C7A42EA0F
:100D900083020EF0010E897A42EAC00004F00104D9
:100DA00040EA0E1001F0010140EA441040EA8110CF
:100DB00010BD000040F28C00C2F200004069704794
:100DC000F0B581B041680A68CB6813409B060ED528
:100DD000C36A5E79002E42D0DB68022B0BD1036B15
:100DE000DB69012B07D149684FF0000C05E00021B9
:100DF0004FF0000C3DE0D1F804C0016B8B685E1C25
:100E00008E6083F800C04168C96801F4A051B1F553
:100E1000805F06D1016B4FEA1C268B685D1C8D60DC
:100E20001E70036B19691E6801311961B1424FF0E0
:100E300000011ED14668C56AF46824F01004F4600D
:100E4000EE686971022E11D1D96900260329DE618D
:100E50000ED002290DD0012918BF002109E04968F0
:100E60000121D9714FF0000C202102E0022100E0A5
:100E700004214368DE681640F60644BF5E6841F010
:100E80004001DE681640360651D5D0F830E09EF8B5
:100E9000204024B1DE6846F00106DE6047E0DEF85F
:100EA0000440DEF81450AC421DD0C66AF668022E2B
:100EB00006D1DEF81C60022E02D1BEF81AC012E084
:100EC000DEF80C707E1CCEF80C6097F800C0DE686F
:100ED00006F4A056B6F5805F05D1BE1CCEF80C60B6
:100EE0007E784CEA062C01351FFA8CF7AC42CEF81E
:100EF00014505F601BD1DF6827F08007DF60DF6878
:100F000047F04007DF60C66AF768022F4FF000071E
:100F10008EF8217009D1DEF81C70012F07D1F77A05
:100F2000012626EA1717394301E041F00101DF6885
:100F300017407F0605D5DF6841F0080127F040071C
:100F4000DF6017070AD4970710D4D70716D1D70543
:100F50001CD4920525D461BB01B0F0BD5F68C76A9F
:100F6000012641F02001FE719707EED55F68C76A40
:100F7000012641F480717E72D707E8D05F68C76AA6
:100F8000012641F40071BE72D705E2D51F68012623
:100F900027F480771F60C76A41F080013E72920596
:100FA000D9D51A6841F4806122F400721A600029D0
:100FB000D2D0C06A0268002ACED00846904701B05D
:100FC000F0BD000010B540F27804C2F20004E17AEE
:100FD000C90718BF10BD0021E160C4E9000140F25B
:100FE0008C00C4F80710C2F200002421FFF75AF960
:100FF0000020C4F20200FFF7B9F90120E07210BD31
:1010000041F2000343F62001C4F2010344F6FF3C21
:10101000C4F202019842C4F2000C18D060451BDDF6
:1010200044F60042C4F20002904225D045F200028C
:10103000C4F20002904223D041F20042C4F2010205
:10104000904225D14A6842F020024A6020E04A6876
:1010500042F010024A601BE044F20042C4F2000277
:10106000904211D044F60002C4F2000290420FD127
:101070000A6842F480220AE00A6842F4002206E08C
:101080000A6842F4801202E00A6842F400320A6000
:1010900000BF00BF00BF984200BF19D060451CDDF3
:1010A00044F60042C4F20002904227D045F200020A
:1010B000C4F20002904226D041F20042C4F2010282
:1010C000904218BF7047486820F020004860704781
:1010D000486820F010004860704744F20042C4F2B3
:1010E0000002904214D044F60002C4F20002904282
:1010F0000DD1086820F4802008607047086820F44B
:10110000002008607047086820F48010086070476D
:10111000086820F4003008607047000010B582B005
:10112000022823D001281ED050BB2520FFF746FB04
:1011300043F64400C4F202000168002421F01001CB
:10114000016040F2780040F28C01C2F20000C2F26D
:10115000000181F82140C17AC0F8074001F0FD018B
:101160004460C1723AE06FF0030437E040F2780067
:10117000C2F20000C17ACA0705D14FF0FF342DE05A
:101180006FF004042AE089074FF0000426D440F2EF
:101190008C01C2F20001C1F81E40C1F81A400321BF
:1011A000C0F807404460C0E90344C17243F64400FC
:1011B0000194C4F20200016841F01001016000686E
:1011C00000F010000190019800F002F900F01CF905
:1011D00041F20000C4F20100FFF712FF204602B006
:1011E00010BD000080B500286FF0040218BF002970
:1011F00001D1104680BD40F27802C2F20002D37ADB
:101200005B075CBF4FF0FF3080BD5379012B2DD0C1
:1012100041F20C0EC4F2010EDEF8003040F28C0CEC
:1012200023F02003C2F2000CCEF800300023CCF8EB
:1012300008000120CCF80010C2F80730CCF81030BC
:101240005071DEF8000040F03000CEF80000D068A9
:1012500002280ED1DCF81C0058B90220CCF81C0082
:101260000CF11A0000F008F8023002D16FF0010012
:1012700080BD0022104680BD80B5024600286FF078
:10128000040018BF002900D180BD40F27803C2F2EB
:101290000003D87A40075CBF4FF0FF3080BD40F2BA
:1012A0008C0CC2F2000C9CF8210010B16FF0010010
:1012B00080BD01208CF82100D868CCF80C200022D9
:1012C0000228CCF80410CCF814200BD1DCF81C0058
:1012D00040B90120CCF81C000CF11800FFF782FF88
:1012E0000230E3D041F20C00C4F20100016841F089
:1012F00080010160002080BD811E02293CBF6FF08B
:1013000003007047012813D000281CBF6FF00400B1
:10131000704740F27800C2F20000006940F40030EB
:10132000B0F5003F1CBF4FF0FF3070470020704702
:1013300040F27800C2F20000006940F40030B0F5DD
:10134000003F1CBF4FF0FF30704700207047000087
:10135000B0B5054600286FF0040018BF002900D181
:10136000B0BD1446002AFBD040F27802C2F200025F
:10137000D07A40074FF0FF30F2D5D268022AEFD181
:1013800040F28C00C2F200000322C26108462146EE
:10139000FFF728FF002818BFB0BD28462146FFF7F9
:1013A0006BFFB0BD80B50020C4F202004FF40071A5
:1013B000FFF7B6F840F27800C2F200000021C172D7
:1013C00080BD000040F20420C0F20D2070470000F4
:1013D0004EF28420CEF20000202101607047000010
:1013E000002848BF704700F01F01012202FA01F1F6
:1013F0004EF280124009CEF2000242F82010BFF3F4
:101400004F8FBFF36F8F70474EF20410CEF2000083
:10141000202101607047000082B0152040F20404D2
:101420000190C2F200042068816841F26940C0F670
:1014300000008847206801690220884720684FF42F
:101440001651826A0120904720680121826A152086
:10145000904720680F21426940F20800C2F2000064
:10146000904700BFFEE70000C00708BF704740F28A
:10147000B000C2F200000168013101607047F1EE76
:10148000100A4FF6FF71C0F2C03120EA010040F0AF
:101490004070E1EE100A70470000000001020304F2
:1014A000C51300081908000851080008850800083D
:1014B0005D0800086D080008650800087D08000840
:1014C0003908000829080008110800083108000838
:1014D00075080008210800083906000000100140C6
:1014E000D10700080C1500080000000000000000F3
:1014F00000000000000000002500000000000000C7
:1015000000000000780000208C0000200000024055
:10151000000207000000000038150008000000204D
:1015200018000000000200085015000818000020F4
:10153000A00600001C0200080024F400A01400080B
:1015400041686D656420417A617A790A0000000083
:04000005080001C529
:00000001FF
